S01600006770696F5F6B36305F746F7765722E737265639F
S3151FFF8000F87F00201184FF1F5DC2FF1F5DC2FF1F88
S3151FFF80105DC2FF1F5DC2FF1F5DC2FF1F5DC2FF1F48
S3151FFF80205DC2FF1F5DC2FF1F5DC2FF1F5DC2FF1F38
S3151FFF80305DC2FF1F5DC2FF1F5DC2FF1F5DC2FF1F28
S3151FFF80405DC2FF1F5DC2FF1F5DC2FF1F5DC2FF1F18
S3151FFF80505DC2FF1F5DC2FF1F5DC2FF1F5DC2FF1F08
S3151FFF80605DC2FF1F5DC2FF1F5DC2FF1F5DC2FF1FF8
S3151FFF80705DC2FF1F5DC2FF1F5DC2FF1F5DC2FF1FE8
S3151FFF80805DC2FF1F5DC2FF1F5DC2FF1F5DC2FF1FD8
S3151FFF80905DC2FF1F5DC2FF1F5DC2FF1F5DC2FF1FC8
S3151FFF80A05DC2FF1F5DC2FF1F5DC2FF1F5DC2FF1FB8
S3151FFF80B05DC2FF1F5DC2FF1F5DC2FF1F5DC2FF1FA8
S3151FFF80C05DC2FF1F5DC2FF1F5DC2FF1F5DC2FF1F98
S3151FFF80D05DC2FF1F5DC2FF1F5DC2FF1F5DC2FF1F88
S3151FFF80E05DC2FF1F5DC2FF1F5DC2FF1F5DC2FF1F78
S3151FFF80F05DC2FF1F5DC2FF1F5DC2FF1F5DC2FF1F68
S3151FFF81005DC2FF1F5DC2FF1F5DC2FF1F5DC2FF1F57
S3151FFF81105DC2FF1F5DC2FF1F5DC2FF1F5DC2FF1F47
S3151FFF81205DC2FF1F5DC2FF1F5DC2FF1F5DC2FF1F37
S3151FFF81305DC2FF1F5DC2FF1F5DC2FF1F5DC2FF1F27
S3151FFF81405DC2FF1F5DC2FF1F5DC2FF1F5DC2FF1F17
S3151FFF8150B1B9FF1FE7B9FF1F09BAFF1F2BBAFF1FD1
S3151FFF81605DC2FF1F5DC2FF1F5DC2FF1F5DC2FF1FF7
S3151FFF81705DC2FF1F5DC2FF1F5DC2FF1F5DC2FF1FE7
S3151FFF81805DC2FF1F5DC2FF1F5DC2FF1F5DC2FF1FD7
S3151FFF81905DC2FF1F5DC2FF1F5DC2FF1FD7B8FF1F57
S3151FFF81A05DC2FF1F5DC2FF1F71B9FF1F5DC2FF1FAC
S3151FFF81B05DC2FF1F5DC2FF1F5DC2FF1F5DC2FF1FA7
S3151FFF81C05DC2FF1F5DC2FF1F5DC2FF1F5DC2FF1F97
S3151FFF81D05DC2FF1F5DC2FF1F5DC2FF1F5DC2FF1F87
S3151FFF81E05DC2FF1F5DC2FF1F5DC2FF1F5DC2FF1F77
S3151FFF8400FFFFFFFFFFFFFFFFFFFFFFFFFEFFFFFF59
S3151FFF84104FF000004FF000014FF000024FF0000336
S3151FFF84204FF000044FF000054FF000064FF0000716
S3151FFF84304FF000084FF000094FF0000A4FF0000BF6
S3151FFF84404FF0000C62B602F001FBFEE780B5012379
S3151FFF84500200002001F0A0FCC0B202BD80B50123BF
S3151FFF84600200002001F0F7FCC0B202BD30B40022AB
S3151FFF84700123002400252C0007E0E4B2255C03FB43
S3151FFF848005224FF480756B43641CE4B2C9B28C425C
S3151FFF8490F3D3100030BC7047B0F16101C9B21A297E
S3151FFF84A002D2203840B200E040B2704780B5DFF8F5
S3151FFF84B07C1A0020FFF7CAFFDFF8700A0078EB2847
S3151FFF84C005D00421DFF8680AFFF7D0FF00E0002080
S3151FFF84D080B202BD80B5DFF8541ADFF8580A00686C
S3151FFF84E04078FFF7B3FFDFF8441ADFF8480A006842
S3151FFF84F04078FFF7ABFF0421DFF83C0AFFF7B6FF13
S3151FFF8500DFF8301A0968C968484302BD80B5DFF82E
S3151FFF85101C1ADFF8200A00684078401CFFF796FFF9
S3151FFF85200421DFF8CC0AFFF7A1FF02BD10B5DFF864
S3151FFF8530FC49DFF8000A0068DFF8001A09780170A6
S3151FFF8540FFF7B4FFDFF8EC1909684870FFF7AEFFB6
S3151FFF8550DFF8E01909684870FFF7BCFFDFF8D41989
S3151FFF856009684860042114F12400FFF77FFFDFF835
S3151FFF8570C41909680861042114F12C00FFF776FF5F
S3151FFF8580DFF8B01909688860022114F10B00FFF7A5
S3151FFF85906DFFDFF8A0190968C860012114F10D00EE
S3151FFF85A0FFF764FFDFF88C1909684861022114F190
S3151FFF85B00E00FFF75BFFDFF87C190968497850FA51
S3151FFF85C081F0DFF8701909688861DFF868090068AC
S3151FFF85D08069217CDFF85C291268126902FB0100A2
S3151FFF85E0DFF850190968C861FFF774FFDFF84419F0
S3151FFF85F009684860FFF78AFFDFF8F819086010BDA2
S3151FFF860080B5DFF82819DFF82C0900684078401C71
S3151FFF8610FFF71CFFDFF8140990F8E801FF2816D1B2
S3151FFF8620DFF8080990F8E901FF2810D1DFF8FC08E9
S3151FFF863090F8EA01FF280AD1DFF8F00890F8EB015E
S3151FFF8640FF2804D1DFF8EC08006840680EE004211C
S3151FFF8650DFF8A409FFF70AFFDFF8D8180968496989
S3151FFF86604843DFF8D0180968C968484302BD10B5EB
S3151FFF867082B0040000200090DFF8B018DFF8B408BE
S3151FFF868000684078401CFFF7E1FEFFF7B9FFDFF8F0
S3151FFF8690A41809684969DFF89C281268D2685143F4
S3151FFF86A0B0FBF1F00090002C03D00098401C009007
S3151FFF86B002E00098401E0090DFF870089DF800103A
S3151FFF86C080F8E811DFF864089DF8011080F8E911BA
S3151FFF86D0DFF858089DF8021080F8EA11DFF84C08FA
S3151FFF86E09DF8031080F8EB11DFF84018DFF84408F8
S3151FFF86F000684078401CFFF7B1FE13BD01B5DFF8D8
S3151FFF87002C18DFF8300800684078401CFFF79EFEE4
S3151FFF8710DFF818089DF8001080F8EC11DFF80C0839
S3151FFF87209DF8011080F8ED11DFF800089DF8021083
S3151FFF873080F8EE11DFF8F4079DF8031080F8EF11AC
S3151FFF8740DFF8E817DFF8EC0700684078401CFFF7F3
S3151FFF875085FE01BD10B50400DFF8D80700688069E4
S3151FFF876010EBD410DFF8C417FFF770FEDFF8BC0756
S3151FFF87708021B4FBF1F202FB114210EB82000421B0
S3151FFF8780FFF774FE10BD10B4002200E0521CD2B2D8
S3151FFF8790082A07D2D2B21356D2B25456A342F5D0E5
S3151FFF87A0002000E0012010BC7047F8B506000C0042
S3151FFF87B020000125012704E0401C90F90010002925
S3151FFF87C0FAD13FB2002F27D096F90010002910D0FB
S3151FFF87D02A2902D03F2909D012E0761C96F90010EC
S3151FFF87E001F0C6FB0028ECD12000E6E7761C401CF3
S3151FFF87F0E7E790F90010002900D000250027E0E7E2
S3151FFF880096F9001090F90020914202D1761C401C68
S3151FFF881001E000250027D4E72800C0B2F2BDF8B556
S3151FFF882004000D000726002700203000461E40B219
S3151FFF8830005D2028F9D0002707E07FB2385740B2E6
S3151FFF8840FFF72AFE7FB278557F1C7FB276B2B01C28
S3151FFF88508742F2DB7FB22E2078557F1C0A26300017
S3151FFF8860461E40B2005D2028F9D0F019801F002652
S3151FFF887006E076B23119097A7FB27955761C7F1CCD
S3151FFF88807FB240B28742F4DB7FB200207855F1BD3D
S3151FFF889070B50400200001F076FB0500002607E0F7
S3151FFF88A0F6B2305740B2FFF7F7FDF6B23055761CDA
S3151FFF88B0F6B2EDB2AE42F3D370BD2DE9F14F86B0DE
S3151FFF88C0012500260027DFF86C06006884680698D6
S3151FFF88D090F90100002810D1069890F900005C2836
S3151FFF88E00BD120009DE0EDB206982856FFF7D4FD69
S3151FFF88F0F6B200A97054761C6D1CEDB20698285669
S3151FFF8900002800F08080EDB2069828565C28EAD131
S3151FFF891004E0F6B200A820213154761CF6B2082EC9
S3151FFF8920F7D3F6B200A8002131540026DFF804065C
S3151FFF893000688068201ADFF8FC1509684969DFF8A7
S3151FFF8940F4251268D26901FB0028C2462EE0DFF824
S3151FFF8950DC051BEB000900A94846FFF714FF00289B
S3151FFF89601AD00127022119F11A00FFF77FFD040014
S3151FFF8970022119F11400FFF779FD5FF4803101FB26
S3151FFF89800044DFF8B0050068D0F80CB0DFF8A40587
S3151FFF89900068406910EB080A1BF1200BDFF89405EE
S3151FFF89A00068C0688345D2D31AF1010ADFF8840530
S3151FFF89B00068406910EB0800824507D2DFF86C1587
S3151FFF89C05046FFF743FD5FF0000BE7E7A046FFB2F8
S3151FFF89D0002F07D12000FFF7BDFE04007FF0704177
S3151FFF89E08842A3D1FFB2002F0BD1DFF8D409C0F8FD
S3151FFF89F0008000A9DFF8CC0901F0D2FA002700207A
S3151FFF8A000FE0002778E7F6B200A8002131540127AF
S3151FFF8A10DFF8AC09046000A9DFF8A80901F0C0FA66
S3151FFF8A20200007B0BDE8F08F2DE9F44F84B0050095
S3151FFF8A30002600270020002205E0D2B250565C28F0
S3151FFF8A4000D11000521CD2B250560028F5D1080093
S3151FFF8A50FFF733FF0400002800F02281DFF86409C7
S3151FFF8A60FFF716FFDFF8CC0400688068201ADFF8CF
S3151FFF8A70C41409684969DFF8BC241268D26901FB6F
S3151FFF8A80002BD84601E018F10108DFF8A80400689B
S3151FFF8A90406910EB0B00804580F0EF80DFF88C14E8
S3151FFF8AA04046FFF7D3FC5FF0000902E0761C19F181
S3151FFF8AB02009DFF880040068C0688145E3D2DFF82C
S3151FFF8AC06C0419EB000A00A95046FFF7A8FE00A980
S3151FFF8AD0DFF8F008FFF769FE0028E8D09AF80000D4
S3151FFF8AE0E528E4D09AF80B008006E0D50498B0423B
S3151FFF8AF0DCD1012702211AF11A00FFF7B7FC040088
S3151FFF8B0002211AF11400FFF7B1FC5FF4803101FB5C
S3151FFF8B10004404211AF11C00FFF7A8FC686100A995
S3151FFF8B20280001F03DFA02211AF11A00FFF79EFCF9
S3151FFF8B30834602211AF11400FFF798FC5FF4803178
S3151FFF8B4001FB00B0E860E8682861E868DFF8E41316
S3151FFF8B5009688968401ADFF8DC1309684969DFF875
S3151FFF8B60D4231268D26901FB0020A8610020A883C5
S3151FFF8B7000202862C5F82480A5F828909AF80B00D4
S3151FFF8B8085F82A0002211AF10E00FFF76FFC8346B4
S3151FFF8B901BF01F00C0B2400085F82D005FEA5B1077
S3151FFF8BA010F03F0085F82C005FEADB2010F01F0056
S3151FFF8BB085F82B0002211AF11000FFF757FC834699
S3151FFF8BC01BF01F0085F831005FEA5B1010F00F00E6
S3151FFF8BD085F83000CBF3462000F2BC70E8850221F2
S3151FFF8BE01AF11600FFF742FC83461BF01F00C0B2A7
S3151FFF8BF0400085F834005FEA5B1010F03F0085F8F0
S3151FFF8C0033005FEADB2010F01F0085F832000221D8
S3151FFF8C101AF11800FFF72AFC83461BF01F0085F881
S3151FFF8C2039005FEA5B1010F00F0085F83800CBF3B1
S3151FFF8C30462000F2BC70E88602211AF11200FFF7E8
S3151FFF8C4015FC83461BF01F0085F83D005FEA5B108E
S3151FFF8C5010F00F0085F83C00CBF3462000F2BC70E6
S3151FFF8C606887DFF8D0020068D0F80C90DFF8C402DF
S3151FFF8C700068406910EB0B0819E7FFB2002F08D1F8
S3151FFF8C802000FFF767FD04007FF0704188427FF4E5
S3151FFF8C90E9AEFFB2002F01D1012002E0002000E064
S3151FFF8CA0022005B0BDE8F08FF8B504000D0060691E
S3151FFF8CB0A842C0F03881206A85420BD1A08BDFF80E
S3151FFF8CC074120968C968B0FBF1F201FB1200A08399
S3151FFF8CD0012029E1206A854216D2E06820612069BA
S3151FFF8CE0DFF8501209688968401ADFF848120968C9
S3151FFF8CF04969DFF840221268D26901FB0020A06193
S3151FFF8D000020A08300202062206A281ADFF8241281
S3151FFF8D100968C968A28B891A8842C0F0A480206A95
S3151FFF8D20DFF810120968C9680818A18B401A20625C
S3151FFF8D300020A083A069DFF8FC1109684969DFF8E5
S3151FFF8D40F421126892682369D21A02FB0100DFF829
S3151FFF8D50E4110968C969401ADFF8D811096849691A
S3151FFF8D60491E884215D12069FFF7F4FC206120694F
S3151FFF8D70DFF8C01109688968401ADFF8B81109685A
S3151FFF8D804969DFF8B0211268D26901FB0020A06193
S3151FFF8D9002E0A069401CA0612069DFF898110968ED
S3151FFF8DA08968401ADFF88C1109684969DFF8842141
S3151FFF8DB01268D26901FB0026206A281ADFF8741190
S3151FFF8DC00968C968B0FBF1F0A1690818801BDFF8B5
S3151FFF8DD0641109684969491E814255D2206ADFF825
S3151FFF8DE0541109684969A269891ADFF8482112686F
S3151FFF8DF05269DFF840311B689B6826699B1B03FB83
S3151FFF8E001211DFF830211268D2695118DFF82421B9
S3151FFF8E101268D26802FB010020622069FFF79AFCE5
S3151FFF8E2020612069DFF80C1109688968401ADFF88D
S3151FFF8E30041109684969DFF8FC201268D26901FB32
S3151FFF8E400020A0610020A083206A281ADFF8E41003
S3151FFF8E500968C968DFF8DC20126852695143B0FB05
S3151FFF8E60F1F600272EE0A08B15FA80F0216A401A33
S3151FFF8E70DFF8C0100968C968B0FBF1F201FB1200E9
S3151FFF8E80A083256201204FE0A069216A691ADFF8D6
S3151FFF8E90A4201268D268B1FBF2F10818A061206AFC
S3151FFF8EA0281ADFF890100968C968B0FBF1F201FBB9
S3151FFF8EB01200A0832562012036E02069FFF74AFCD6
S3151FFF8EC020617F1CB742F8D3206A1A490968C9680F
S3151FFF8ED001FB06F1174A1268526902FB0100206265
S3151FFF8EE02069144909688968401A1249096849693E
S3151FFF8EF0104A1268D26901FB0020216A691A0D4ABE
S3151FFF8F001268D268B1FBF2F10818A061206A281A0D
S3151FFF8F1008490968C968B0FBF1F201FB1200A0837B
S3151FFF8F202562002000E00120F2BD0000D0C3FF1F15
S3151FFF8F3096C5FF1F50DDFF1FF0C3FF1FB8F7FF1FAB
S3151FFF8F40F8B50400DFF8040C006880692949096831
S3151FFF8F5010EBD11500E06D1CDFF8F00B0068806980
S3151FFF8F60DFF8E81B09680969081885423DD2DFF853
S3151FFF8F708C172800FFF76AFADFF88077002600E0D4
S3151FFF8F80761CDFF8C80B0068C068B6EB900FE2D2FD
S3151FFF8F90042117EB8600FFF769FA0028F0D1E4B228
S3151FFF8FA0002C0FD10020FFF762FBDFF8A00B006834
S3151FFF8FB08069281A802101FB00600E4908600D4851
S3151FFF8FC0006813E0DFF8840B00688069281A802188
S3151FFF8FD001FB0060FFF792FBDFF8700B00688069EB
S3151FFF8FE0281A802101FB006000E00020F2BD00006F
S3151FFF8FF0BCC5FF1FCCC3FF1FB8C5FF1F2DE9F84315
S3151FFF90000400884616001D0000275FF00009F6B210
S3151FFF9010002E3DD0404600F0B6FF81465FFA89F924
S3151FFF9020B9F1090F1BD3002707E0FFB217F9080095
S3151FFF9030FFF732FAFFB238557F1CFFB2062FF4D364
S3151FFF90407E20A0713120E0710027FFB2032F80F031
S3151FFF90508880FFB23819202101727F1CF5E7002790
S3151FFF906007E0FFB217F90800FFF716FAFFB23855E8
S3151FFF90707F1CFFB25FFA89F94F45F2D3FFB2082F64
S3151FFF9080E2D2FFB2202038557F1CF7E719F10109FD
S3151FFF90905FFA89F919F908002E2805D05FFA89F9B1
S3151FFF90A019F908000028F1D15FFA89F9B9F1090FFB
S3151FFF90B020D3002707E0FFB217F90800FFF7ECF9E7
S3151FFF90C0FFB238557F1CFFB2062FF4D37E20A07147
S3151FFF90D03120E0715FFA89F919F90800002820D1BC
S3151FFF90E00027FFB2032F3CD2FFB23819202101728E
S3151FFF90F07F1CF6E7002707E0FFB217F90800FFF707
S3151FFF9100CBF9FFB238557F1CFFB25FFA89F94F457E
S3151FFF9110F2D3FFB2082FDDD2FFB2202038557F1CB6
S3151FFF9120F7E7002704E0FFB23819202101727F1CE1
S3151FFF9130FFB2032FF7D319F1010900270BE05FFADF
S3151FFF914089F919F90800FFF7A7F9FFB2391908724C
S3151FFF91507F1C19F101095FFA89F919F9080000281F
S3151FFF9160EDD1F6B2002E02D01020E07201E02020D2
S3151FFF9170E072E8782979490111EBC020697910EB74
S3151FFF91805100A07380B2000AE07328781430697803
S3151FFF9190490111EB4020A97850FA81F0207480B263
S3151FFF91A0000A607400202073002020750020607560
S3151FFF91B00020A0760020E076002704E0FFB23819D2
S3151FFF91C0002101777F1CFFB2042FF7D3BDE8F18380
S3151FFF91D038B504000D00DFF82415DFF874090068A1
S3151FFF91E08069A200DFF868391B68DB68B2FBF3F200
S3151FFF91F01018FFF72BF9A000DFF854190968C96883
S3151FFF9200B0FBF1F201FB1200DFF8F0144554A0008A
S3151FFF9210DFF83C190968C968B0FBF1F201FB1200C0
S3151FFF9220DFF8D8144018290A4170A000DFF820196B
S3151FFF92300968C968B0FBF1F201FB1200DFF8BC1425
S3151FFF92404018290C8170A000DFF804190968C96846
S3151FFF9250B0FBF1F201FB1200DFF8A0144018290E34
S3151FFF9260C170DFF89814DFF8E80800688069A2006C
S3151FFF9270DFF8DC381B68DB68B2FBF3F21018FFF769
S3151FFF9280EDF8DFF87814DFF8C80800688069DFF8A3
S3151FFF9290C028126812691018A200DFF8B4381B68BD
S3151FFF92A0DB68B2FBF3F21018FFF7D0F8A000DFF868
S3151FFF92B0A0180968C968B0FBF1F201FB1200DFF8BD
S3151FFF92C03C144554A000DFF888180968C968B0FB2D
S3151FFF92D0F1F201FB1200DFF824144018290A41702E
S3151FFF92E0A000DFF86C180968C968B0FBF1F201FB33
S3151FFF92F01200DFF808144018290C8170A000DFF850
S3151FFF930050180968C968B0FBF1F201FB1200DFF8BC
S3151FFF9310EC134018290EC170DFF8E013DFF8300891
S3151FFF932000688069DFF82828126812691018A200E2
S3151FFF9330DFF81C381B68DB68B2FBF3F21018FFF768
S3151FFF93408DF831BD38B50400002005E080B2DFF887
S3151FFF9350AC1300224254401C80B2DFF8F417096891
S3151FFF9360C9688842F2D3DFF8E80700688068201AC9
S3151FFF9370DFF8DC1709684969DFF8D4271268D26955
S3151FFF938001FB002504E0DD492800FFF767F86D1C88
S3151FFF9390DFF8BC0700688068201ADFF8B417096872
S3151FFF93A04969DFF8AC271268D26901FB0020DFF895
S3151FFF93B0A0170968496908188542E4D331BD000023
S3151FFF93C0C8C3FF1FB8C3FF1F2DE9F54F83B00D009D
S3151FFF93D01E005FF000080E9B3200D2B20499DFF821
S3151FFF93E07407FFF70BFE0195DFF8600700688068BB
S3151FFF93F0281ADFF8581709684969DFF850271268D6
S3151FFF9400D26901FB0027BA4601E01AF1010ADFF80C
S3151FFF94103C0700684069C019824557D2B749504675
S3151FFF9420FFF714F85FF000091BE0DFF82817415C10
S3151FFF943000F80B10401C2028F7D3B0495046FFF702
S3151FFF94400DF85746ADF80090DFF800070068D0F813
S3151FFF94500C90DFF8F8060068406910EB070A19F150
S3151FFF94602009DFF8E8060068C0688145CDD2A3480A
S3151FFF947019EB000B9BF800000028F0D15FF00108E5
S3151FFF9480F6B2002E1CD00020FFF75AFD040000285D
S3151FFF949002D15FF0FF302AE17FF070412000FFF716
S3151FFF94A097FE200CDFF8AC160875200EDFF8A41602
S3151FFF94B04875DFF8A0068476200ADFF89816C87667
S3151FFF94C08E495046FEF7C2FF0020B4E75FFA88F8C1
S3151FFF94D0B8F1000F08D12800FFF73CF905007FF010
S3151FFF94E0704188427FF47FAF5FFA88F8B8F1000FAB
S3151FFF94F059D10020FFF724FD0700002F02D15FF08F
S3151FFF9500FF30F4E07FF070413800FFF761FE39004E
S3151FFF95100198FFF75DFEDFF8340600688068381A8A
S3151FFF9520DFF8281609684969DFF820261268D2690D
S3151FFF953001FB00270020ADF8000070493800FEF739
S3151FFF954085FFF6B2002E20D00020FFF7F9FC04009E
S3151FFF9550002802D15FF0FF30C9E07FF07041200085
S3151FFF9560FFF736FE65493800FEF770FF200CDFF860
S3151FFF9570E4150875200EDFF8DC154875DFF8D405EE
S3151FFF95808476200ADFF8CC15C876002005E05B49F4
S3151FFF9590DFF8C025825C4254401C2028F7D3574969
S3151FFF95A03800FEF75BFFF6B2002E7AD02000FFF7DA
S3151FFF95B0C9FE0E9B01224FA1DFF89805FFF71EFD7F
S3151FFF95C0200CDFF890150875200EDFF888154875F3
S3151FFF95D0DFF880058476200ADFF87815C876002025
S3151FFF95E005E04649DFF86C25825C4254401C202863
S3151FFF95F0F7D30E9B012240A1DFF85805FFF7FEFCAC
S3151FFF9600DFF8480500688068854210D1DFF84405FA
S3151FFF961000210175DFF83C0500214175DFF8340590
S3151FFF962000218176DFF82C050021C1760EE0280C7C
S3151FFF9630DFF820150875280EDFF818154875DFF8AF
S3151FFF964014058576280ADFF80C15C876202007E053
S3151FFF9650DFF80015411811F8201C284A8154401CB9
S3151FFF96604028F5D3DFF8E4140968C968884204D295
S3151FFF9670224900224254401CF4E7DFF8D004006859
S3151FFF96808068201ADFF8C41409684969DFF8BC240B
S3151FFF96901268D26901FB002718493800FEF7DEFE64
S3151FFF96A021E00499039800F07BFC03980021C16019
S3151FFF96B0039800210161039800214161039800214E
S3151FFF96C0816103980021818303980021016203981A
S3151FFF96D047620398BDF8001001850398DFF87414DD
S3151FFF96E0C97A80F82A100120FFF72AFC012005B04E
S3151FFF96F0BDE8F08F2E0000002E2E0000D0C3FF1FE7
S3151FFF97002DE9F84F04000D00904600205FF0000979
S3151FFF9710002D00F0D681DFF84014606AFEF796FE33
S3151FFF9720208DDFF8341410EB010A04211AF11C00F7
S3151FFF9730FEF79CFE0600002E3CD10020FFF700FC23
S3151FFF97400700002F01D10020BFE17FF070413800D5
S3151FFF9750FFF73EFDE760E06820610020606120693A
S3151FFF9760DFF8EC1309688968401ADFF8E413096804
S3151FFF97704969DFF8DC231268D26901FB0020A0616B
S3151FFF97800020A08300202062DFF8CC13606AFEF75B
S3151FFF97905DFE380C8AF81400380E8AF815008AF811
S3151FFF97A01A70380A8AF81B00DFF8AC13606AFEF7D7
S3151FFF97B055FE28E0DFF8980300684069DFF890132D
S3151FFF97C00968C9684843B6FBF0F100FB1160002822
S3151FFF97D015D16069411E2000FFF766FA0020FFF7CB
S3151FFF97E0AFFB0700002F01D100206EE13900206972
S3151FFF97F0FFF7EEFC7FF070413800FFF7E9FC616968
S3151FFF98002000FFF751FAA769DFF84C133800FEF760
S3151FFF98101DFEA08B00E0401CDFF834130968C968E2
S3151FFF982088420AD219F80810DFF82C23815419F140
S3151FFF98300109A945EFD3A76907E1DFF81C13A06943
S3151FFF9840FEF70CFEA069DFF8081309684969DFF800
S3151FFF98500023126892682369D21A02FB0100DFF800
S3151FFF9860F0120968C969401ADFF8E41209684969E5
S3151FFF9870491E884233D2A069471C05E0DFF8D8127C
S3151FFF98803800FEF7EBFD7F1C2069DFF8C41209685D
S3151FFF98908968401ADFF8B81209684969DFF8B022EC
S3151FFF98A01268D26901FB0020DFF8A4120968496913
S3151FFF98B00818401EB84212D3002000E0401CDFF8F4
S3151FFF98C090120968C9688842D8D219F80810DFF8BC
S3151FFF98D08822815419F10109A945EFD3B5E0B5EBEC
S3151FFF98E0090000905FF0000A01E01AF1010A0098D3
S3151FFF98F0DFF85C1209684969DFF854221268D268DB
S3151FFF99005143B0FBF1F0824540D20020FFF718FB11
S3151FFF99100700002F01D10020D7E039002069FFF78C
S3151FFF992057FC7FF070413800FFF752FC2761DFF8C5
S3151FFF9930200200688068381ADFF81412096849691F
S3151FFF9940DFF80C221268D26901FB002B5F4613E07A
S3151FFF995019F80810DFF80022815419F10109401C7C
S3151FFF9960DFF8EC110968C9688842F1D3DFF8E811FF
S3151FFF99703800FEF773FD7F1CDFF8D40100684069CE
S3151FFF998010EB0B008742B0D20020E9E7B5EB0900C9
S3151FFF999000900098002840D00020FFF7D1FA07005B
S3151FFF99A0002F01D1002090E039002069FFF710FC3E
S3151FFF99B07FF070413800FFF70BFC2761DFF890013E
S3151FFF99C000688068381ADFF8881109684969DFF867
S3151FFF99D080211268D26901FB002B5F4611E019F83F
S3151FFF99E00810DFF87421815419F10109401C5849E9
S3151FFF99F00968C9688842F2D357493800FEF72EFD1A
S3151FFF9A007F1C009852490968C968B0FBF1F010EB3B
S3151FFF9A100B00874201D20020E9E7B5EB0900009052
S3151FFF9A200098002811D0002006E019F808104A4AAE
S3151FFF9A30815419F10109401C45490968C9688842C3
S3151FFF9A40F3D345493800FEF709FD43493800FEF7B2
S3151FFF9A5005FD4149606AFEF7F9FC208D3E49401816
S3151FFF9A60A9190177208D3C494018A919090A417781
S3151FFF9A70208D39494018A919090C8177208D364940
S3151FFF9A804018A919090EC1773349606AFEF7E6FC2C
S3151FFF9A90A819606160692E490968C968B0FBF1F2B0
S3151FFF9AA001FB1200002800D17F1CA76160692849AE
S3151FFF9AB00968C968B0FBF1F201FB1200A083606958
S3151FFF9AC020620120FFF73CFA2800BDE8F28F70B530
S3151FFF9AD082B004000D0016002800FEF7EEFE0028D8
S3151FFF9AE00CD1009601231D4A1D4801682000FFF770
S3151FFF9AF06BFC10F1010FEFD1012000E0002076BDB6
S3151FFF9B0070B582B004000D00160000222900200048
S3151FFF9B10FEF78AFF002817D0320029002000FFF723
S3151FFF9B20D6FF00280ED1009600230C4A0C48016869
S3151FFF9B302000FFF749FC10F1010F01D1032004E0BC
S3151FFF9B40002002E0022000E0012076BD50DDFF1F4E
S3151FFF9B5050DDFF1F98C3FF1FD0C3FF1FB8C3FF1FD3
S3151FFF9B60C8C3FF1F10B58AB0DFF8FC43C0B2002879
S3151FFF9B7001D1002C01D104200CE1DFF8E8030078A6
S3151FFF9B80800701D5032005E1012060600020A0604A
S3151FFF9B900020E060002060610020207400206074B8
S3151FFF9BA00021012000F010FB002801D00120F1E069
S3151FFF9BB00020009000A9032000F006FB002801D01B
S3151FFF9BC00120E7E00098022808D00098032805D057
S3151FFF9BD00098052802D0009806282FD10098032841
S3151FFF9BE002D00098062801D10120207402208DF88B
S3151FFF9BF0040000208DF805000020029000208DF83C
S3151FFF9C000C000020049001A9022000F0DDFA0028B5
S3151FFF9C1016D103208DF8040000208DF805000020C3
S3151FFF9C20029000208DF80C000020049001A902204D
S3151FFF9C3000F0CAFA002805D00120ABE00420A9E0F6
S3151FFF9C400120A7E00598000C0004606109208DF82C
S3151FFF9C50040000208DF805006069029000208DF832
S3151FFF9C600C000020049001A9022000F0ADFA002885
S3151FFF9C7001D001208EE0089810F4400F19D10798E4
S3151FFF9C80C0F303229DF81C0010F003000699890DEF
S3151FFF9C9051EA80200699C1F3C211401C0123891C7A
S3151FFF9CA013FA01F148430121093A91404843E06005
S3151FFF9CB007E0012060740698C0F31520401C800240
S3151FFF9CC0E06007208DF8040000208DF8050060690D
S3151FFF9CD0029000208DF80C000020049001A902209D
S3151FFF9CE000F072FA002801D0012053E010208DF8F2
S3151FFF9CF0040000208DF805004FF40070029000202D
S3151FFF9D008DF80C000020049001A9022000F05CFAD8
S3151FFF9D10002801D001203DE06068012833D137209C
S3151FFF9D208DF8040000208DF8050060690290002061
S3151FFF9D308DF80C000020049001A9022000F044FAC0
S3151FFF9D40002801D0012025E046208DF804000020C1
S3151FFF9D508DF805000220029000208DF80C000020D0
S3151FFF9D60049001A9022000F02FFA002801D001203C
S3151FFF9D7010E00120009000A9072000F025FA002817
S3151FFF9D8001D0012006E07748007810F0FE007549E4
S3151FFF9D90087000200AB010BD30B589B00C001D0039
S3151FFF9DA07149C0B2002802D1EDB2002D01D10420A6
S3151FFF9DB04FE06C480078C00701D5032049E0002C0F
S3151FFF9DC001D1012045E0087C002800D15202EDB2E7
S3151FFF9DD0012D1AD111208DF8000000208DF80100EA
S3151FFF9DE0019201208DF80800EDB2039500A902200C
S3151FFF9DF000F0EAF9002825D14FF40071200000F08A
S3151FFF9E006BF900281ED000251CE012208DF80000DC
S3151FFF9E1000208DF80100019201208DF80800EDB298
S3151FFF9E20039500A9022000F0CFF900280AD1EDB251
S3151FFF9E304FF4007000FB05F1200000F04DF90028DC
S3151FFF9E4000D00025EDB2002D01D0012000E000203B
S3151FFF9E50C0B209B030BD70B588B00E001D00424CB0
S3151FFF9E60C0B2002802D1EDB2002D01D1042076E049
S3151FFF9E703C480078C00701D5032070E039480078B9
S3151FFF9E80400701D502206AE0002E01D1012066E0BE
S3151FFF9E90207C002800D15202EDB2012D1AD11820C5
S3151FFF9EA08DF8000000208DF80100019200208DF82B
S3151FFF9EB00800EDB2039500A9022000F085F90028DE
S3151FFF9EC025D14FF40071300000F04FF900281ED046
S3151FFF9ED000251CE019208DF8000000208DF80100D9
S3151FFF9EE0019200208DF80800EDB2039500A902200C
S3151FFF9EF000F06AF900280AD1EDB24FF4007000FB9B
S3151FFF9F0005F1300000F031F9002800D000250D20A3
S3151FFF9F108DF8000000208DF8010060690190002078
S3151FFF9F208DF808000020039000A9022000F04CF9CD
S3151FFF9F30002801D0012012E004980C49084201D0E5
S3151FFF9F4001200CE0049810F4F850B0F5106FDED125
S3151FFF9F50EDB2002D01D0012000E00020C0B208B0F5
S3151FFF9F6070BD000094C3FF1F94F7FF1F0880D9FF22
S3151FFF9F700278C9B28A421AB11CBF10F8012FF9E73E
S3151FFF9F8018BF002070470021002802D1002006E0DD
S3151FFF9F90491C0200501C1278002AF9D1080070478D
S3151FFF9FA002000B0000280BD0002909D003E0197807
S3151FFF9FB011705B1C521C19780029F8D100211170F2
S3151FFF9FC0704750F8041B61B150F8042BD30744BFE9
S3151FFF9FD0A9F101039A18002342F8043B091FFAD17E
S3151FFF9FE0EFE7704780B5DFF8D02800231370DFF83F
S3151FFF9FF0CC28126852F40032DFF8C0381A60DFF837
S3151FFFA000C028DFF8C0381360DFF8B4281268D20102
S3151FFFA010FAD4DFF8B42800231360DFF8B0285FF403
S3151FFFA02081331360DFF8A82828231360DFF8A428DD
S3151FFFA0305FF00113136000F03BFBDFF89C0800681D
S3151FFFA04010F003000028F8D1DFF8900840F24341D3
S3151FFFA0500160DFF88C0840F243410160DFF8840896
S3151FFFA0604FF488610160DFF8800840F243410160C9
S3151FFFA070DFF8780840F243410160DFF8740840F2C9
S3151FFFA08043410160DFF86C084FF6FF710160DFF88F
S3151FFFA0906808DFF868180160DFF82408006850F0C9
S3151FFFA0A00060DFF81C180860DFF81408006800015D
S3151FFFA0B0FAD4DFF824080068C00303D5DFF8F807D2
S3151FFFA0C001210170DFF82C08006850F08000DFF8CF
S3151FFFA0D024180860002002BD10B4DFF8DC271278B1
S3151FFFA0E0022A0ED0DFF8D0271278032A09D0DFF80D
S3151FFFA0F0C8271278072A04D0DFF8BC271278082A48
S3151FFFA10004D1DFF8D42712685207FAD400E0891A60
S3151FFFA110002927D0B1F5007F02D94FF4007200E066
S3151FFFA1200A00D31C9B080AE0DFF8AC472468240506
S3151FFFA130FAD5DFF8CC4724680460001D5B1E002B91
S3151FFFA140E5D0DFF8B047246814F4E00FECD0DFF852
S3151FFFA150A4070068DFF8AC170843DFF898170860F5
S3151FFFA160002000E0012010BC704710B4002928D042
S3151FFFA170B1F5007F02D94FF4007200E00A00891A79
S3151FFFA180D21C92080AE0DFF850371B685B05FAD529
S3151FFFA190DFF86C3704681C60001D521E002AE5D0CD
S3151FFFA1A0DFF850371B6813F4E00FECD0DFF84407D6
S3151FFFA1B00068DFF854170843DFF8381708600020D8
S3151FFFA1C000E0012010BC70472DE9F04788B00C0056
S3151FFFA1D05FF0000A012816D0C0F06482032800F042
S3151FFFA1E03282C0F02A81052800F04B81C0F02F81F3
S3151FFFA1F0072800F0ED81C0F0CC81092800F0A3816C
S3151FFFA200C0F095814EE2DFF80417DFF80407FFF76A
S3151FFFA210E9FE8246BAF1000F40F046820024002570
S3151FFFA220002600275FF000085FF0000900208DF869
S3151FFFA230000000208DF801000020019000208DF8FE
S3151FFFA24008000020039000A800F08FFA002802D014
S3151FFFA2505FF0010A28E2002000E0401CDFF8B41679
S3151FFFA2608842FAD308208DF8000000208DF80100E0
S3151FFFA2704FF4D570019000208DF808000020039041
S3151FFFA28000A800F072FA8146B9F1000F08D10498B1
S3151FFFA2900199884202D05FF0010A05E25FF00108CB
S3151FFFA2A05FF001095FFA89F9B9F1000F00F08C80A1
S3151FFFA2B037208DF8000000208DF801000020019047
S3151FFFA2C000208DF808000020039000A800F04DFA2B
S3151FFFA2D08146B9F1000F02D05FF0010AE4E1692060
S3151FFFA2E08DF8000000208DF801000020019000204E
S3151FFFA2F08DF808000020039000A800F036FA00280A
S3151FFFA30002D05FF0010ACFE1049810F4401F5BD023
S3151FFFA3105FF00009002000E0401CDFF8FC158842B3
S3151FFFA320FAD319F1010937208DF8000000208DF8A7
S3151FFFA33001000020019000208DF8080000200390E7
S3151FFFA34000A800F012FA002802D05FF0010A24E0ED
S3151FFFA35069208DF8000000208DF801005FFA88F84C
S3151FFFA360B8F1000F03D0DFF8B405019002E05FF4E8
S3151FFFA3704010019000208DF808000020039000A8D0
S3151FFFA38000F0F3F9002802D05FF0010A05E00498F8
S3151FFFA390002802D4B9F10A0FBCD3BAF1000F40F05F
S3151FFFA3A08381B9F10A0F02D35FF000080CE0012485
S3151FFFA3B05FFA88F8B8F1000F06D05FF0000804981F
S3151FFFA3C0400001D55FF00108F6B2002E03D0DFF87B
S3151FFFA3D0E80407210170FFB2002F03D0DFF8D8046E
S3151FFFA3E008210170EDB2002D03D0DFF8CC04042144
S3151FFFA3F00170E4B2002C0CD0DFF8BC0402210170FF
S3151FFFA4005FFA88F8B8F1000F03D0DFF8AC04032119
S3151FFFA4100170EDB2002D0FD0E4B2002C0CD0DFF887
S3151FFFA4209804052101705FFA88F8B8F1000F03D071
S3151FFFA430DFF884040621017036E1200000F095F94C
S3151FFFA4408146B9F1000F01D05FF0020A2CE1002C03
S3151FFFA45002D15FF00C0A13E0DFF864040068C0F353
S3151FFFA46007205FEA4009DFF858040068C0F30310AE
S3151FFFA470401C00FB09F9DFF89804B0FBF9F02060D8
S3151FFFA48012E1002C02D15FF00C0A4FE02068002872
S3151FFFA49002D15FF00C0A49E000F055F9002843D1BD
S3151FFFA4A0DFF8380400210160DFF834040021016062
S3151FFFA4B0DFF8300400210160DFF82C040021016062
S3151FFFA4C0DFF8280400210160DFF824040021016062
S3151FFFA4D02168DFF83C0400F0EBF8DFF8000440F2D8
S3151FFFA4E043410160DFF8F80340F243410160DFF8A3
S3151FFFA4F0F4034FF488610160DFF8EC0340F2434138
S3151FFFA5000160DFF8E80340F243410160DFF8E00333
S3151FFFA51040F243410160DFF8A403006850F40030A6
S3151FFFA520DFF89813086001E05FF00A0ABCE0002C11
S3151FFFA53002D15FF00C0A05E0DFF890030068C00444
S3151FFFA540C00C2060B0E0002C02D15FF00C0A1FE0A8
S3151FFFA55000F0F9F8002819D12068B0F5805F02D303
S3151FFFA5605FF00C0A14E0DFF864030068400B40033A
S3151FFFA570DFF858130860DFF8540300682168C90421
S3151FFFA580C90C0843DFF84413086001E05FF00A0AAD
S3151FFFA5908AE0002C02D15FF00C0A18E0DFF83003C7
S3151FFFA5A00068C0F34109B9F1000F02D100202060F6
S3151FFFA5B00DE0B9F1010F02D10120206007E0B9F1CB
S3151FFFA5C0100F02D10220206001E05FF0050A6BE049
S3151FFFA5D0002C02D15FF00C0A34E000F0B4F800281B
S3151FFFA5E02ED1206800280AD1B948006830F006002E
S3151FFFA5F0B7490860B648B6490968016022E0206876
S3151FFFA60001280CD1B248006830F00600B049086037
S3151FFFA610AF48006850F00200AD49086012E020689D
S3151FFFA62002280AD1AA48006830F00600A849086028
S3151FFFA630A748A7490968016004E05FF0050A01E022
S3151FFFA6405FF00A0A30E0002C02D15FF00C0A28E007
S3151FFFA6509B48006850F00060994908609848006859
S3151FFFA6600001FBD4A3480068000608D5A14800686F
S3151FFFA67050F080009F4908608F480021017096485F
S3151FFFA6800068C00307D58C480078002806D18A4882
S3151FFFA6900121017002E08848002101708648007879
S3151FFFA6A0206001E05FF0090A504608B0BDE8F08759
S3151FFFA6B0F0B480220F235FF0FF3602240EE005FB66
S3151FFFA6C004F74F433F1A002F04D4B74202D23E006E
S3151FFFA6D022002B006D1C112DF1D36400B4F5807F72
S3151FFFA6E001D80125F7E77648006830F0080074495E
S3151FFFA6F00860734800688A4911EA0005D00110F403
S3151FFFA7007F402843591E090111F0F001084350F4F9
S3151FFFA71060206B49086070480068000705D4002059
S3151FFFA72080498842F7D2401CFAE76548006850F017
S3151FFFA7300800634908606F48006850F480106D4930
S3151FFFA7400860F0BC70476448006840F20731084252
S3151FFFA75001D0012000E00020C0B27047654909689B
S3151FFFA76001400029FAD00800704738B50400207849
S3151FFFA77010F03F000FF2D41151F82050002D04D1D5
S3151FFFA7802078002801D0012095E05A48006850F034
S3151FFFA79080005849086050480068C007FBD46068AE
S3151FFFA7A06149086035F440056078800510F4400064
S3151FFFA7B005436078022801D155F4001560780428F7
S3151FFFA7C00DD115F44030B0F5003F04D135F44035B7
S3151FFFA7D055F4403503E035F4403555F400353B4815
S3151FFFA7E0006880B239490860E06800281DD015F45B
S3151FFFA7F04030B0F5403F01D055F40015207A0028B0
S3151FFFA80001D055F01005E068022801D355F0200549
S3151FFFA810E06810F1010F08D02C480068E16850EA84
S3151FFFA82001402A49086055F0020540480021016092
S3151FFFA8303F4805603F48FFF791FF012807D02D4886
S3151FFFA84000683D4908432B490860012033E029482A
S3151FFFA8500068000607D52748006850F001102549F4
S3151FFFA8600860012027E023480068C00308D5214858
S3151FFFA870006850F001101F4908605FF0FF301AE0B3
S3151FFFA88015F4403F10D02D480068206115F4403065
S3151FFFA890B0F5803F08D12A480068606129480068E3
S3151FFFA8A0A06129480068E0611248006850F0010066
S3151FFFA8B010490860002032BD94F7FF1F3080044007
S3151FFFA8C02C100B4000800001C0100B4004100B40E2
S3151FFFA8D028100B4044100B4024100B4000D004409F
S3151FFFA8E004D0044008D004400CD0044010D00440CC
S3151FFFA8F014D0044030100B4034100B40B3007F00C0
S3151FFFA90020100B40200070001000700040787D0162
S3151FFFA91000D8B80580841E0020A107000000304024
S3151FFFA9200F00F0FF400D030008100B4000100B40F7
S3151FFFA9300C100B4001000E0001000F0010100B4002
S3151FFFA94014100B4018100B401C100B40000000008A
S3151FFFA950000000010000090200001A0300000004A6
S3151FFFA9600000020500001A0600001B0700001A0858
S3151FFFA970000009090000090A00001A0B0000DB0C82
S3151FFFA98000001A0D000000000000000F00001A1043
S3151FFFA99000001A1100001A120000000000001A140E
S3151FFFA9A00000000000001A1600001A1700001A18F0
S3151FFFA9B000001A1900001A1A00001A1B00001B1CA0
S3151FFFA9C000001B1D00001A1E0000000000001A20B9
S3151FFFA9D000001A2100001A2200001A2300001A2461
S3151FFFA9E000001A2500001B260000022700001A2858
S3151FFFA9F00000022900001B2A0000000000000000C3
S3151FFFAA000000000000000000000000000000000022
S3151FFFAA10000000000000000000001A3300001A3477
S3151FFFAA2000001A350000000000001A3700001B380F
S3151FFFAA3000000000000000000000000000001B3C9B
S3151FFFAA4000001B3D000000000000000080B500F065
S3151FFFAA5009FC00F023FC00F06FFC2CA000F01FFF89
S3151FFFAA60DFF8A0030078400703D50FF2D43000F0BC
S3151FFFAA7016FFDFF890030078800703D50FF2D0305B
S3151FFFAA8000F00DFFDFF87C030078C00703D50FF238
S3151FFFAA90DC3000F004FFDFF870030078000603D5F3
S3151FFFAAA00FF2D43000F0FBFEDFF85C0300784006A0
S3151FFFAAB003D50FF2D43000F0F2FEDFF84C03007817
S3151FFFAAC0800603D50FF2D43000F0E9FEDFF8380316
S3151FFFAAD00078400703D50FF2DC3000F0E0FEDFF809
S3151FFFAAE028030078800703D50FF2E03000F0D7FE6A
S3151FFFAAF0DFF814030078C00703D50FF2EC3000F020
S3151FFFAB00CEFE00F005F800F0EBFFFEE70A0A000095
S3151FFFAB1080B5BE480068000910F0070000280BD05B
S3151FFFAB20022813D00DD304281AD014D3062821D0F8
S3151FFFAB301BD3072823D027E00FF2B83000F0AFFE54
S3151FFFAB4026E00FF2B83000F0AAFE21E00FF2B43074
S3151FFFAB5000F0A5FE1CE00FF2B43000F0A0FE17E0D8
S3151FFFAB600FF2B03000F09BFE12E00FF2B03000F094
S3151FFFAB7096FE0DE00FF2AC3000F091FE08E00FF2EB
S3151FFFAB80AC3000F08CFE03E00FF2A83000F087FE1A
S3151FFFAB909E48006810F00F00022812D0042815D017
S3151FFFABA0052818D006281BD007281ED0082821D015
S3151FFFABB0092824D00A2827D00C282AD00E282DD0C2
S3151FFFABC031E00FF2983000F06AFE30E00FF29C3052
S3151FFFABD000F065FE2BE00FF2A43000F060FE26E0CA
S3151FFFABE00FF2A83000F05BFE21E00FF2B03000F04D
S3151FFFABF056FE1CE00FF2B43000F051FE17E00FF2C5
S3151FFFAC00BC3000F04CFE12E00FF2C03000F047FEE2
S3151FFFAC100DE00FF2C83000F042FE08E00FF2CC3015
S3151FFFAC2000F03DFE03E00FF2D43000F038FE774808
S3151FFFAC300068C0F303310FF2F03000F030FE00F072
S3151FFFAC4091F873480068000E00281AD001281DD0FE
S3151FFFAC50022820D0032823D0042826D0052829D050
S3151FFFAC6006282CD007282FD0082832D0092835D000
S3151FFFAC700A2838D00B283BD00C283ED0FF2841D0BE
S3151FFFAC8045E00FF2BC3000F00AFE44E00FF2C83079
S3151FFFAC9000F005FE3FE00FF2D83000F000FE3AE06D
S3151FFFACA00FF2E43000F0FBFD35E00FF2F43000F059
S3151FFFACB0F6FD30E00FF2004000F0F1FD2BE00FF242
S3151FFFACC0104000F0ECFD26E00FF21C4000F0E7FD00
S3151FFFACD021E00FF22C4000F0E2FD1CE00FF238409E
S3151FFFACE000F0DDFD17E00FF2484000F0D8FD12E03F
S3151FFFACF00FF2544000F0D3FD0DE00FF2644000F059
S3151FFFAD00CEFD08E00FF2704000F0C9FD03E00FF221
S3151FFFAD107C4000F0C4FD3F480068000B10F00F0099
S3151FFFAD20052806D0072809D008280CD009280FD0D8
S3151FFFAD3013E00FF2784000F0B2FD12E00FF28040F1
S3151FFFAD4000F0ADFD0DE00FF28C4000F0A8FD08E00E
S3151FFFAD500FF2944000F0A3FD03E00FF2A44000F0B2
S3151FFFAD609EFD01BD80B52C48032101702B48002194
S3151FFFAD7001702B48002101702A48002101702A48C3
S3151FFFAD80012101702948802101702848007800069B
S3151FFFAD90FBD527480078C0B2009026480378DBB260
S3151FFFADA025480278D2B225480178C9B20FF26C4006
S3151FFFADB000F075FD18480321017018480021017026
S3151FFFADC017480021017017480421017016480121F9
S3151FFFADD00170164880210170144800780006FBD5C4
S3151FFFADE013480078C0B2009012480378DBB21248AE
S3151FFFADF00278D2B211480178C9B20FF2484000F06B
S3151FFFAE004EFD01BD00E0074001E0074024800440DE
S3151FFFAE104C800440007004400700024006000240B9
S3151FFFAE2005000240040002400F00024000000240DE
S3151FFFAE3008000240090002400A0002400B000240C0
S3151FFFAE40536F6674776172652052657365740A0066
S3151FFFAE50436F7265204C6F636B7570204576656E09
S3151FFFAE60742052657365740A000000004A544147F7
S3151FFFAE702052657365740A00506F7765722D6F6E6A
S3151FFFAE802052657365740A0045787465726E616C2E
S3151FFFAE902050696E2052657365740A00576174638B
S3151FFFAEA068646F6728434F50292052657365740A7C
S3151FFFAEB0000000004C6F7373206F6620436C6F6337
S3151FFFAEC06B2052657365740A000000004C6F772D67
S3151FFFAED0766F6C7461676520446574656374205271
S3151FFFAEE0657365740A0000004C4C575520526573F5
S3151FFFAEF065740A000A4B31302D0000000A4B3230B1
S3151FFFAF002D0000000A4B33302D0000000A4B343052
S3151FFFAF102D0000000A4B36302D0000000A4B37303C
S3151FFFAF202D0000000A4B35302D0000000A4B35332C
S3151FFFAF302D0000000A556E7265636F676E697A652D
S3151FFFAF4064204B696E657469732066616D696C79E0
S3151FFFAF50206465766963652E0A00000033327069C7
S3151FFFAF606E2020202020202000000000343870692A
S3151FFFAF706E2020202020202000000000363470691C
S3151FFFAF806E2020202020202000000000383070690E
S3151FFFAF906E202020202020200000000038317069FD
S3151FFFAFA06E2020202020202000000000313030702E
S3151FFFAFB0696E2020202020200000000031303470D1
S3151FFFAFC0696E2020202020200000000031343470BD
S3151FFFAFD0696E2020202020200000000031393670A6
S3151FFFAFE0696E202020202020000000003235367099
S3151FFFAFF0696E202020202020000000000A556E7257
S3151FFFB00065636F676E697A6564204B696E657469E0
S3151FFFB01073207061636B61676520636F64652E20A4
S3151FFFB020202020202000000053696C69636F6E206B
S3151FFFB03072657620256420202020200A000000004C
S3151FFFB0403132206B4279746573206F6620502D66EF
S3151FFFB0506C617368090000003136206B4279746595
S3151FFFB06073206F6620502D666C61736809000000A0
S3151FFFB0703332206B4279746573206F6620502D66BD
S3151FFFB0806C617368090000003438206B4279746560
S3151FFFB09073206F6620502D666C6173680900000070
S3151FFFB0A03634206B4279746573206F6620502D6688
S3151FFFB0B06C617368090000003936206B427974652D
S3151FFFB0C073206F6620502D666C6173680900000040
S3151FFFB0D0313238206B4279746573206F6620502D8D
S3151FFFB0E0666C617368090000313932206B427974CF
S3151FFFB0F06573206F6620502D666C617368090000AB
S3151FFFB100323536206B4279746573206F6620502D5A
S3151FFFB110666C617368090000333230206B427974A5
S3151FFFB1206573206F6620502D666C6173680900007A
S3151FFFB130333834206B4279746573206F6620502D28
S3151FFFB140666C617368090000343438206B4279746A
S3151FFFB1506573206F6620502D666C6173680900004A
S3151FFFB160353132206B4279746573206F6620502DFF
S3151FFFB170666C61736809000046756C6C2073697A8B
S3151FFFB1806520502D666C6173680900004552522178
S3151FFFB1902120556E646566696E656420502D666C49
S3151FFFB1A06173682073697A650A00000020333220B5
S3151FFFB1B06B4279746573206F662052414D0A0A00F0
S3151FFFB1C0203634206B4279746573206F6620524197
S3151FFFB1D04D0A0A00203936206B4279746573206F3A
S3151FFFB1E0662052414D0A0A0020313238206B4279C0
S3151FFFB1F0746573206F662052414D0A0A00000000D6
S3151FFFB20020455252212120556E646566696E65641D
S3151FFFB2102052414D2073697A650A0A00466C617395
S3151FFFB2206820706172616D657465722076657273D1
S3151FFFB230696F6E2025642E25642E25642E25640ACC
S3151FFFB24000000000466C6173682076657273696F34
S3151FFFB2506E2049442025642E25642E25642E2564E1
S3151FFFB2600A00000080B500F009F80A4800884FF66B
S3151FFFB270FE7108400749088001BD000072B60648E7
S3151FFFB2804CF22051018004484DF62811018062B609
S3151FFFB29070470000002005400E20054080B51C4862
S3151FFFB2A01C4988420BD0002006E01949194A52F85B
S3151FFFB2B0202041F82020401CB0F5826FF5D314489B
S3151FFFB2C000F02CFD1449154A1548801A03E0137820
S3151FFFB2D00B70521C491C0300581E002BF7D1114936
S3151FFFB2E01148401A02E000220A70491C0200501E34
S3151FFFB2F0002AF8D10D490E4A0E48801A03E013782B
S3151FFFB3000B70521C491C0300581E002BF7D101BDA1
S3151FFFB3100080FF1F0080FF1F94C3FF1F44C3FF1F33
S3151FFFB32048C3FF1F98C3FF1FB9F7FF1F48C3FF1F60
S3151FFFB33010C2FF1F5CC2FF1F80B52448006850F470
S3151FFFB3407850224908600321022000F0B1FD2049F1
S3151FFFB35008601F4800684FF47A7148431D4908600B
S3151FFFB3601C4800681C490968C1F30361491CB0FBEF
S3151FFFB370F1F01A49086000F012F800F01BF81848A0
S3151FFFB3804FF44071016017484FF4407101605FF43D
S3151FFFB390E13212480168144800F014FE01BD13483C
S3151FFFB3A0006850F480501149086011484FF4E0615E
S3151FFFB3B0016070470F48006850F001000D49086093
S3151FFFB3C00D484FF4A06101607047000038800440AC
S3151FFFB3D0B0F7FF1FACF7FF1F44800440B4F7FF1FF2
S3151FFFB3E020D0044024D0044000B00E400480044007
S3151FFFB3F018900440408004400CB0044010B50C0068
S3151FFFB4001168012902D0022904D009E0C0B2516890
S3151FFFB410884705E0916808709068401C9060FFE7B9
S3151FFFB4202068401C206010BD30B41C00002300257F
S3151FFFB4300570401C002A19D0096800290AD130213E
S3151FFFB44001705B1C180030BC70473035110005704A
S3151FFFB450401C5B1C0029F5D091FBF4F204FB12156F
S3151FFFB460002DF2D5E94311F13105EFE709680029F0
S3151FFFB47008D1302101705B1CE4E7373511000570D9
S3151FFFB480401C5B1C0029DDD0B1FBF4F204FB121537
S3151FFFB4900A2DF2D23035F1E7F8B504000D0016007C
S3151FFFB4A01F0005E03A0031003020FFF7A7FF641C9D
S3151FFFB4B0AC42F7DBF1BDF8B504000D0016001F0007
S3151FFFB4C005E03A0031002020FFF798FF641CAC42CD
S3151FFFB4D0F7DBF1BD2DE9F04F8DB0050016000020FB
S3151FFFB4E000900C0005E02A0000A91800FFF786FF51
S3151FFFB4F0641C2378002B00F0CE81252B12D00A2B3C
S3151FFFB50005D02A0000A91800FFF778FF09E02A00D7
S3151FFFB51000A90D20FFF772FF2A0000A90A20FFF7D7
S3151FFFB5206DFFE5E70027002101E057F0010700291E
S3151FFFB5301BD1641C207820280BD023280FD02B2843
S3151FFFB54004D02D28F1D0302806D00BE057F0020784
S3151FFFB550EDE757F00407EAE757F00807E7E757F065
S3151FFFB5601007E4E7641E0121E1E75FF000080021F1
S3151FFFB57004E00A2000FB0830B0F13008002908D18B
S3151FFFB580641C2378180030380928F2D9641E01215C
S3151FFFB590F4E7641C20782E280BD10021FFE7002932
S3151FFFB5A008D1641C207830380928F8D9641E012178
S3151FFFB5B0F5E7641E641C20784C2806D0682802D045
S3151FFFB5C06C2801D002E002E001E000E0641E641C6B
S3151FFFB5D023781800582878D0622800F0DA8063286D
S3151FFFB5E000F02481642813D0692811D06E2800F03B
S3151FFFB5F04D816F2800F0C280702800F0D580732818
S3151FFFB60000F01B81752800F0DA8078285DD06AE785
S3151FFFB61030680390361D0A23012203A904A8FFF7EA
S3151FFFB62003FF824604A81AEB00090398002804D5D6
S3151FFFB6302D2002901AF1010A11E03800800704D568
S3151FFFB6402B2002901AF1010A09E03800400704D5A2
S3151FFFB650202002901AF1010A01E0002002905FF0FC
S3151FFFB660000B3800000711D50298002804D02A00C6
S3151FFFB67000A90298FFF7C2FE5FF0010B2B0000AA7D
S3151FFFB68041465046FFF708FFC24612E03800C00783
S3151FFFB6900FD42B0000AA41465046FFF70CFF029816
S3151FFFB6A0002804D02A0000A90298FFF7A7FE5FF023
S3151FFFB6B0010BBBF1000F07D10298002804D02A0007
S3151FFFB6C000A90298FFF79AFEA3E030680190361D86
S3151FFFB6D01023002201A904A8FFF7A6FE824604A88D
S3151FFFB6E01AEB00095FF0000B3800000716D538006C
S3151FFFB6F0C0060BD52A0000A93020FFF77FFE2A00C0
S3151FFFB70000A97820FFF77AFE5FF0010B2B0000AA36
S3151FFFB71041465046FFF7C0FEC2461CE03800C00731
S3151FFFB72019D43800C00601D51AF1020A2B0000AA48
S3151FFFB73041465046FFF7BFFE3800C0060BD52A000D
S3151FFFB74000A93020FFF75AFE2A0000A97820FFF72D
S3151FFFB75055FE5FF0010B3800C0060ED5BBF1000F7B
S3151FFFB7600BD12A0000A93020FFF748FE2A0000A9A7
S3151FFFB7707820FFF743FE1AF1020A4AE0306801906C
S3151FFFB780361D0823002201A904A8FFF74DFE824696
S3151FFFB7901FE030680190361D0223002201A904A86D
S3151FFFB7A0FFF742FE824614E030680190361D1023D4
S3151FFFB7B0002201A904A8FFF737FE824609E0306879
S3151FFFB7C00190361D0A23002201A904A8FFF72CFEAC
S3151FFFB7D0824604A81AEB00093800000707D52B007D
S3151FFFB7E000AA41465046FFF757FEC24611E03800F2
S3151FFFB7F0C0070ED42B0000AA41465046FFF75BFE3B
S3151FFFB80007E02A0000A999F80000FFF7F7FDB9F135
S3151FFFB810010999F800000028F3D1F80705D52B0079
S3151FFFB82000AA41465046FFF746FE61E63078361DB1
S3151FFFB8302A0000A9FFF7E2FD5AE6D6F80090361D4B
S3151FFFB840B9F1000F21D04846FEF79DFB824638000F
S3151FFFB850C0070ED42B0000AA41465046FFF72BFE0A
S3151FFFB86007E02A0000A999F80000FFF7C7FD19F1A5
S3151FFFB870010999F800000028F3D1F80705D52B0019
S3151FFFB88000AA41465046FFF716FE31E63068361DC1
S3151FFFB890009901602CE600980DB0BDE8F08F0EB43D
S3151FFFB8A000B584B0012100910449019105AA010049
S3151FFFB8B000A8FFF70FFE04B05DF810FB25C3FF1F9F
S3151FFFB8C0002103E0521C3B2AFCD3491C814201D2B3
S3151FFFB8D00022F8E7704780B5AE484FF4004101607C
S3151FFFB8E0572000F068FAAC480068AC4909680FF2A8
S3151FFFB8F0383252F82110884221D10320FFF7E0FF8B
S3151FFFB900A7480021016011E0A5480068A3490968FF
S3151FFFB9106422A44B02FB0131A34A1268FF235A4339
S3151FFFB92042549F480068401C9D4908609C48006818
S3151FFFB9306428E9D399480068401C984908609648CF
S3151FFFB9400068401C94490860944800683C2802D14F
S3151FFFB950964801210160012000F021F894480068F4
S3151FFFB96050F0010092490860442000F0DAF901BD4A
S3151FFFB97080B590484FF4807101604FF4AD5000F0D1
S3151FFFB9800EF88B48006850F0010089490860442073
S3151FFFB99000F0C7F9854800680028FBD001BD86491E
S3151FFFB9A008608348006850F00300814908607047AC
S3151FFFB9B080B58248006850F00100804908607C48C6
S3151FFFB9C00068400840007A490860442000F0F3F9F8
S3151FFFB9D076480068002805D10A20FFF771FF572018
S3151FFFB9E000F09FF901BD80B57548006850F0010052
S3151FFFB9F0734908607348006850F480607149086096
S3151FFFBA00452000F0D8F901BD80B56F48006850F09A
S3151FFFBA1001006D4908606B48006850F480606949F2
S3151FFFBA200860462000F0C7F901BD80B5674800686A
S3151FFFBA3050F00100654908606248006850F4806055
S3151FFFBA4060490860472000F0B6F901BD6048002134
S3151FFFBA5001706048006850F080505E4908605E487C
S3151FFFBA60007850F080005C4908705C48982101708F
S3151FFFBA705B480078C006FBD459480078C0F38100A5
S3151FFFBA80C0B20228F8D1574813210170564800212A
S3151FFFBA900170564800685549096851F47F01534A9A
S3151FFFBAA011605349534A0A60504908604E48502156
S3151FFFBAB001704B4800788006FBD549480078400641
S3151FFFBAC0FBD54648007810F03F00444908704448AC
S3151FFFBAD00078C0F38100C0B20328F8D17047000079
S3151FFFBAE030B587B0002404A80FF224110CC90CC06F
S3151FFFBAF00839083853208DF8040065208DF8050096
S3151FFFBB0072208DF8060061208DF8070070208DF8D2
S3151FFFBB10080068208DF809006C208DF80A0069203F
S3151FFFBB208DF80B0069208DF80C00FFF78FFF72B69B
S3151FFFBB300020FEF717F805002F4830490160FCF774
S3151FFFBB40F5FC2F4800F0B8FA2E484FF478510160E4
S3151FFFBB5062B6EDB2002DFCD1002CFAD104AA0FF26A
S3151FFFBB60B8012948FDF7CCFF01AA09212648FDF791
S3151FFFBB70C7FD01AA09212448FDF7C2FD20480090F1
S3151FFFBB80224B462250210FF2980000F0AEFA641C9A
S3151FFFBB90DFE70000A090044044DDFF1F40DDFF1FCD
S3151FFFBBA048DDFF1FD0C5FF1F90F00F404CDDFF1F65
S3151FFFBBB008710340A0C00440007103400C7103408D
S3151FFFBBC01C7103400CF00F402C7103403C71034066
S3151FFFBBD0014006403480044008C00740004006402D
S3151FFFBBE006400640044006400540064000F001405F
S3151FFFBBF0448004400000130150DDFF1F54DDFF1F6B
S3151FFFBC00B4DDFF1F3880044074DDFF1FB4E1FF1F43
S3151FFFBC1009070D0D140F00005C332E747874000096
S3151FFFBC205C362E626D7000001400000018000000C5
S3151FFFBC301C00000020000000240000002800000058
S3151FFFBC402C00000030000000340000003800000008
S3151FFFBC503B0000003E0000004100000044000000C2
S3151FFFBC60470000004A0000004D0000005000000082
S3151FFFBC705300000056000000590000005B00000043
S3151FFFBC805D0000005F000000610000006300000010
S3151FFFBC906500000067000000690000006B000000E0
S3151FFFBCA06D0000006E0000006F00000070000000B6
S3151FFFBCB07100000072000000730000007400000096
S3151FFFBCC07500000076000000770000007800000076
S3151FFFBCD0790000007A0000007B0000007C00000056
S3151FFFBCE07D0000007E0000007F0000008000000036
S3151FFFBCF08100000082000000830000008400000016
S3151FFFBD0085000000860000008700000088000000F5
S3151FFFBD10890000008A0000008B0000003D49086073
S3151FFFBD20704710B504005C2C03DB0FF21010FFF7F2
S3151FFFBD30B6FD202094FBF0F0002803D0022827D061
S3151FFFBD4013D337E00120202194FBF1F202FB1142AE
S3151FFFBD509040314908600120202194FBF1F202FB3C
S3151FFFBD60114290402D49086024E00120202194FBB9
S3151FFFBD70F1F202FB11429040294908600120202160
S3151FFFBD8094FBF1F202FB114290402649086011E035
S3151FFFBD900120202194FBF1F202FB11429040224920
S3151FFFBDA008600120202194FBF1F202FB1142904013
S3151FFFBDB01E49086010BD10B504005C2C03DB0FF293
S3151FFFBDC0B400FFF76CFD202094FBF0F0002803D092
S3151FFFBDD0022815D00AD31CE00120202194FBF1F283
S3151FFFBDE002FB114290401249086012E001202021F8
S3151FFFBDF094FBF1F202FB114290400E49086008E0E6
S3151FFFBE000120202194FBF1F202FB114290400A49C7
S3151FFFBE10086010BD08ED00E080E200E000E100E0F1
S3151FFFBE2084E200E004E100E088E200E008E100E0D0
S3151FFFBE3080E100E084E100E088E100E00A4552521C
S3151FFFBE402120496E76616C696420495251207661C3
S3151FFFBE506C75652070617373656420746F20656EE2
S3151FFFBE6061626C65206972712066756E6374696F96
S3151FFFBE706E210A000A4552522120496E76616C696E
S3151FFFBE8064204952512076616C756520706173730A
S3151FFFBE90656420746F2064697361626C65206972C3
S3151FFFBEA0712066756E6374696F6E210A000000004C
S3151FFFBEB080B50A00C0B2042801D3002072E0D2B2B7
S3151FFFBEC0102A01D301206DE0374A00231370374A2A
S3151FFFBED0126852F08052354B1A60354A127852F06B
S3151FFFBEE08002334B1A70334A98231370324A1278E3
S3151FFFBEF0D206FBD4304A1278C2F38102D2B2022A8B
S3151FFFBF00F8D12E4A182313702D4A00231370C0B27F
S3151FFFBF10002805D0022819D00DD3032821D02AE0E7
S3151FFFBF20012300220021002000F00EFA24484121A0
S3151FFFBF30017032211FE0032301220121002000F09F
S3151FFFBF4003FA1F485A210170642114E003230122BB
S3151FFFBF500121002000F0F8F91948582101706021CE
S3151FFFBF6009E0012300220021002000F0EDF914480B
S3151FFFBF70402101703021104800788006FBD50E48FE
S3151FFFBF8000784006FBD50B48007810F03F00094AA2
S3151FFFBF90107009480078C0F38100C0B20328F8D19A
S3151FFFBFA00800C0B202BD00000140064034800440B5
S3151FFFBFB008C00740004006400640064004400640B2
S3151FFFBFC00540064030B4324B984206D1314B1B68B1
S3151FFFBFD053F480632F4C23602DE02F4B984206D1DD
S3151FFFBFE02C4B1B6853F400632A4C236023E02B4B17
S3151FFFBFF0984206D1274B1B6853F48053254C236069
S3151FFFC00019E0274B984206D1224B1B6853F4005366
S3151FFFC010204C23600FE0234B984206D1224B1B680F
S3151FFFC02053F48063204C236005E01F4B1B6853F4BA
S3151FFFC03000631D4C2360C37813F0F303C370002303
S3151FFFC04083704FF47A7303FB01F3140193FBF4F32D
S3151FFFC050047814F0E0049BB21D0A15F01F052C434C
S3151FFFC060047043704FF4FA446143120191FBF2F1DE
S3151FFFC0709BB2B1EB4311827A12F0E00411F01F015C
S3151FFFC08021438172C17851F00C01C17030BC7047DA
S3151FFFC09000A006403480044000B0064000C00640A2
S3151FFFC0A000D0064000A00E402880044002791206E9
S3151FFFC0B0FCD5C17170470000002110E089B200F85E
S3151FFFC0C0211089B210EB8102517089B210EB8102E8
S3151FFFC0D0917089B210EB81020023D370491C4FF474
S3151FFFC0E0807289B29142E9D37047F0B5A1B00400BF
S3151FFFC0F00F0016001D0000A80FF264010CC90CC02B
S3151FFFC1000839083802A80FF26001382200F055F8E7
S3151FFFC110FFB2F6B206FB07F0363006FB07F18DF8C6
S3151FFFC1200A00C0B280088DF80B008DF81A708DF8C3
S3151FFFC1301E608DF82A10C9B288088DF82B0000AA39
S3151FFFC140210010A8FDF7DCFC02AA362110A8FDF777
S3151FFFC150D7FA2A00042110A8FDF7D2FA21B0F0BDA5
S3151FFFC16009070D0D140F0000424DF61600000000C3
S3151FFFC17000003604000028000000500000004600A3
S3151FFFC18000000100080000000000C01200000000B0
S3151FFFC190000000000000000000000000000000007B
S3151FFFC1A04AB38B0707D0521E11F8013B00F8013B1C
S3151FFFC1B021D08B07F7D183071ED1103A07D330B48F
S3151FFFC1C0B1E83810103AA0E83810F9D230BC53073F
S3151FFFC1D024BFB1E80810A0E8081044BF51F8043B7C
S3151FFFC1E040F8043BD20724BF31F8022B20F8022B5D
S3151FFFC1F044BF0B7803707047083A07D3B1E808109E
S3151FFFC200083A40F8043B40F804CBF7D25307E4E75C
S3151FFFC21070B4104C24680F4D2D6855F47F050D4ED5
S3151FFFC2203560090611F0706151EA0070110511F4AE
S3151FFFC23070010843190411F4702108430649086069
S3151FFFC240002000E0401CC0B29842FBD301480460A7
S3151FFFC25070BC704700F001404480044080B504481D
S3151FFFC2600178C9B20FF20C00FFF719FB01BD0000E1
S3151FFFC27004ED00E00A2A2A2A2A64656661756C7432
S3151FFFC2805F69737220656E7465726564206F6E20B9
S3151FFFC290766563746F722025642A2A2A2A2A0D0A55
S3151FFFC2A00A00000010B5084979441C31074C7C442D
S3151FFFC2B01A34A14206D0081D0A685118884701463D
S3151FFFC2C0A142F8D110BD00BF0800000014000000F6
S3151FFFC2D0F3DCFFFF2434000098C3FF1F000000009C
S3151FFFC2E000F009F8002801D0FFF7DCFF0020FFF759
S3151FFFC2F0F7FB00F002F80120704780B500F002B887
S3151FFFC30000BF00000746384600F002F8FBE70000B3
S3151FFFC31080B5C046C046024A11001820ABBEFBE7D8
S3151FFFC3202600020080B50100C9B20248FFF7BEFE14
S3151FFFC33001BD000000B00E40C046C046C046C04605
S30D1FFFC340FFF7CEFF010000000D
S7051FFFC339E0
