S01500007473695F6B36305F746F7765722E73726563FF
S1130000F8FF0020110400000D1A00000D1A000072
S11300100D1A00000D1A00000D1A00000D1A000040
S11300200D1A00000D1A00000D1A00000D1A000030
S11300300D1A00000D1A00000D1A00000D1A000020
S11300400D1A00000D1A00000D1A00000D1A000010
S11300500D1A00000D1A00000D1A00000D1A000000
S11300600D1A00000D1A00000D1A00000D1A0000F0
S11300700D1A00000D1A00000D1A00000D1A0000E0
S11300800D1A00000D1A00000D1A00000D1A0000D0
S11300900D1A00000D1A00000D1A00000D1A0000C0
S11300A00D1A00000D1A00000D1A00000D1A0000B0
S11300B00D1A00000D1A00000D1A00000D1A0000A0
S11300C00D1A00000D1A00000D1A00000D1A000090
S11300D00D1A00000D1A00000D1A00000D1A000080
S11300E00D1A00000D1A00000D1A00000D1A000070
S11300F00D1A00000D1A00000D1A00000D1A000060
S11301000D1A00000D1A00000D1A00000D1A00004F
S11301100D1A00000D1A00000D1A00000D1A00003F
S11301200D1A00000D1A00000D1A00000D1A00002F
S11301300D1A00000D1A00000D1A00000D1A00001F
S11301400D1A00000D1A00000D1A00000D1A00000F
S11301500D1A00000D1A00000D1A00000D1A0000FF
S11301600D1A00000D1A00000D1A00000D1A0000EF
S11301700D1A00000D1A00000D1A00000D1A0000DF
S11301800D1A00000D1A00000D1A000025170000BA
S11301900D1A00000D1A00000D1A00000D1A0000BF
S11301A00D1A00000D1A00000D1A00000D1A0000AF
S11301B00D1A00000D1A00000D1A00000D1A00009F
S11301C00D1A00000D1A00000D1A00000D1A00008F
S1130400FFFFFFFFFFFFFFFFFFFFFFFFFEFFFFFFF9
S11304104FF000004FF000014FF000024FF00003D6
S11304204FF000044FF000054FF000064FF00007B6
S11304304FF000084FF000094FF0000A4FF0000B96
S11304404FF0000C62B600F001F8FEE780B500F052
S113045009FC00F023FC00F06FFC2CA000F01FFF4F
S1130460DFF8A0030078400703D50FF2D43000F082
S113047016FFDFF890030078800703D50FF2D03021
S113048000F00DFFDFF87C030078C00703D50FF2FE
S1130490DC3000F004FFDFF870030078000603D5B9
S11304A00FF2D43000F0FBFEDFF85C030078400666
S11304B003D50FF2D43000F0F2FEDFF84C030078DD
S11304C0800603D50FF2D43000F0E9FEDFF83803DC
S11304D00078400703D50FF2DC3000F0E0FEDFF8CF
S11304E028030078800703D50FF2E03000F0D7FE30
S11304F0DFF814030078C00703D50FF2EC3000F0E6
S1130500CEFE00F005F800F0DBFEFEE70A0A00006C
S113051080B5BE480068000910F0070000280BD021
S1130520022813D00DD304281AD014D3062821D0BE
S11305301BD3072823D027E00FF2B83000F0AFFE1A
S113054026E00FF2B83000F0AAFE21E00FF2B4303A
S113055000F0A5FE1CE00FF2B43000F0A0FE17E09E
S11305600FF2B03000F09BFE12E00FF2B03000F05A
S113057096FE0DE00FF2AC3000F091FE08E00FF2B1
S1130580AC3000F08CFE03E00FF2A83000F087FEE0
S11305909E48006810F00F00022812D0042815D0DD
S11305A0052818D006281BD007281ED0082821D0DB
S11305B0092824D00A2827D00C282AD00E282DD088
S11305C031E00FF2983000F06AFE30E00FF29C3018
S11305D000F065FE2BE00FF2A43000F060FE26E090
S11305E00FF2A83000F05BFE21E00FF2B03000F013
S11305F056FE1CE00FF2B43000F051FE17E00FF28B
S1130600BC3000F04CFE12E00FF2C03000F047FEA8
S11306100DE00FF2C83000F042FE08E00FF2CC30DB
S113062000F03DFE03E00FF2D43000F038FE7748CE
S11306300068C0F303310FF2F03000F030FE00F038
S113064091F873480068000E00281AD001281DD0C4
S1130650022820D0032823D0042826D0052829D016
S113066006282CD007282FD0082832D0092835D0C6
S11306700A2838D00B283BD00C283ED0FF2841D084
S113068045E00FF2BC3000F00AFE44E00FF2C8303F
S113069000F005FE3FE00FF2D83000F000FE3AE033
S11306A00FF2E43000F0FBFD35E00FF2F43000F01F
S11306B0F6FD30E00FF2004000F0F1FD2BE00FF208
S11306C0104000F0ECFD26E00FF21C4000F0E7FDC6
S11306D021E00FF22C4000F0E2FD1CE00FF2384064
S11306E000F0DDFD17E00FF2484000F0D8FD12E005
S11306F00FF2544000F0D3FD0DE00FF2644000F01F
S1130700CEFD08E00FF2704000F0C9FD03E00FF2E7
S11307107C4000F0C4FD3F480068000B10F00F005F
S1130720052806D0072809D008280CD009280FD09E
S113073013E00FF2784000F0B2FD12E00FF28040B7
S113074000F0ADFD0DE00FF28C4000F0A8FD08E0D4
S11307500FF2944000F0A3FD03E00FF2A44000F078
S11307609EFD01BD80B52C48032101702B4800215A
S113077001702B48002101702A48002101702A4889
S11307800121017029488021017028480078000661
S1130790FBD527480078C0B2009026480378DBB226
S11307A025480278D2B225480178C9B20FF26C40CC
S11307B000F075FD184803210170184800210170EC
S11307C017480021017017480421017016480121BF
S11307D00170164880210170144800780006FBD58A
S11307E013480078C0B2009012480378DBB2124874
S11307F00278D2B211480178C9B20FF2484000F031
S11308004EFD01BD00E0074001E0074024800440A4
S11308104C8004400070044007000240060002407F
S113082005000240040002400F00024000000240A4
S113083008000240090002400A0002400B00024086
S1130840536F6674776172652052657365740A002C
S1130850436F7265204C6F636B7570204576656ECF
S1130860742052657365740A000000004A544147BD
S11308702052657365740A00506F7765722D6F6E30
S11308802052657365740A0045787465726E616CF4
S11308902050696E2052657365740A005761746351
S11308A068646F6728434F50292052657365740A42
S11308B0000000004C6F7373206F6620436C6F63FD
S11308C06B2052657365740A000000004C6F772D2D
S11308D0766F6C7461676520446574656374205237
S11308E0657365740A0000004C4C575520526573BB
S11308F065740A000A4B31302D0000000A4B323077
S11309002D0000000A4B33302D0000000A4B343018
S11309102D0000000A4B36302D0000000A4B373002
S11309202D0000000A4B35302D0000000A4B3533F2
S11309302D0000000A556E7265636F676E697A65F3
S113094064204B696E657469732066616D696C79A6
S1130950206465766963652E0A000000333270698D
S11309606E202020202020200000000034387069F0
S11309706E202020202020200000000036347069E2
S11309806E202020202020200000000038307069D4
S11309906E202020202020200000000038317069C3
S11309A06E202020202020200000000031303070F4
S11309B0696E202020202020000000003130347097
S11309C0696E202020202020000000003134347083
S11309D0696E20202020202000000000313936706C
S11309E0696E20202020202000000000323536705F
S11309F0696E202020202020000000000A556E721D
S1130A0065636F676E697A6564204B696E657469A6
S1130A1073207061636B61676520636F64652E206A
S1130A20202020202000000053696C69636F6E2031
S1130A3072657620256420202020200A0000000012
S1130A403132206B4279746573206F6620502D66B5
S1130A506C617368090000003136206B427974655B
S1130A6073206F6620502D666C6173680900000066
S1130A703332206B4279746573206F6620502D6683
S1130A806C617368090000003438206B4279746526
S1130A9073206F6620502D666C6173680900000036
S1130AA03634206B4279746573206F6620502D664E
S1130AB06C617368090000003936206B42797465F3
S1130AC073206F6620502D666C6173680900000006
S1130AD0313238206B4279746573206F6620502D53
S1130AE0666C617368090000313932206B42797495
S1130AF06573206F6620502D666C61736809000071
S1130B00323536206B4279746573206F6620502D20
S1130B10666C617368090000333230206B4279746B
S1130B206573206F6620502D666C61736809000040
S1130B30333834206B4279746573206F6620502DEE
S1130B40666C617368090000343438206B42797430
S1130B506573206F6620502D666C61736809000010
S1130B60353132206B4279746573206F6620502DC5
S1130B70666C61736809000046756C6C2073697A51
S1130B806520502D666C617368090000455252213E
S1130B902120556E646566696E656420502D666C0F
S1130BA06173682073697A650A000000203332207B
S1130BB06B4279746573206F662052414D0A0A00B6
S1130BC0203634206B4279746573206F662052415D
S1130BD04D0A0A00203936206B4279746573206F00
S1130BE0662052414D0A0A0020313238206B427986
S1130BF0746573206F662052414D0A0A000000009C
S1130C0020455252212120556E646566696E6564E3
S1130C102052414D2073697A650A0A00466C61735B
S1130C206820706172616D65746572207665727397
S1130C30696F6E2025642E25642E25642E25640A92
S1130C4000000000466C6173682076657273696FFA
S1130C506E2049442025642E25642E25642E2564A7
S1130C600A00000080B500F009F80A4800884FF631
S1130C70FE7108400749088001BD000072B60648AD
S1130C804CF22051018004484DF62811018062B6CF
S1130C9070470000002005400E20054080B51C4828
S1130CA01C4988420BD0002006E01949194A52F821
S1130CB0202041F82020401CB0F5826FF5D3144861
S1130CC000F01AFB1449154A1548801A03E01378FA
S1130CD00B70521C491C0300581E002BF7D11149FC
S1130CE01148401A02E000220A70491C0200501EFA
S1130CF0002AF8D10D490E4A0E48801A03E01378F1
S1130D000B70521C491C0300581E002BF7D101BD67
S1130D100000FF1F000000005C04FF1F541A0000C5
S1130D20941A00009C04FF1FEC04FF1F1004FF1F13
S1130D30C01900000C1A000080B52448006850F463
S1130D407850224908600321022000F051FB204919
S1130D5008601F4800684FF47A7148431D490860D1
S1130D601C4800681C490968C1F30361491CB0FBB5
S1130D70F1F01A49086000F012F800F01BF8184866
S1130D804FF44071016017484FF4407101605FF403
S1130D90E13212480168144800F0B4FB01BD134865
S1130DA0006850F480501149086011484FF4E06124
S1130DB0016070470F48006850F001000D49086059
S1130DC00D484FF4A0610160704700003880044072
S1130DD0A004FF1F9C04FF1F44800440A404FF1FC1
S1130DE020D0044024D0044000B00E4004800440CD
S1130DF018900440408004400CB0044010B50C002E
S1130E001168012902D0022904D009E0C0B2516856
S1130E10884705E0916808709068401C9060FFE77F
S1130E202068401C206010BD30B41C000023002545
S1130E300570401C002A19D0096800290AD1302104
S1130E4001705B1C180030BC704730351100057010
S1130E50401C5B1C0029F5D091FBF4F204FB121535
S1130E60002DF2D5E94311F13105EFE709680029B6
S1130E7008D1302101705B1CE4E73735110005709F
S1130E80401C5B1C0029DDD0B1FBF4F204FB1215FD
S1130E900A2DF2D23035F1E7F8B504000D00160042
S1130EA01F0005E03A0031003020FFF7A7FF641C63
S1130EB0AC42F7DBF1BDF8B504000D0016001F00CD
S1130EC005E03A0031002020FFF798FF641CAC4293
S1130ED0F7DBF1BD2DE9F04F8DB0050016000020C1
S1130EE000900C0005E02A0000A91800FFF786FF17
S1130EF0641C2378002B00F0CE81252B12D00A2B02
S1130F0005D02A0000A91800FFF778FF09E02A009D
S1130F1000A90D20FFF772FF2A0000A90A20FFF79D
S1130F206DFFE5E70027002101E057F001070029E4
S1130F301BD1641C207820280BD023280FD02B2809
S1130F4004D02D28F1D0302806D00BE057F002074A
S1130F50EDE757F00407EAE757F00807E7E757F02B
S1130F601007E4E7641E0121E1E75FF000080021B7
S1130F7004E00A2000FB0830B0F13008002908D151
S1130F80641C2378180030380928F2D9641E012122
S1130F90F4E7641C20782E280BD10021FFE70029F8
S1130FA008D1641C207830380928F8D9641E01213E
S1130FB0F5E7641E641C20784C2806D0682802D00B
S1130FC06C2801D002E002E001E000E0641E641C31
S1130FD023781800582878D0622800F0DA80632833
S1130FE000F02481642813D0692811D06E2800F001
S1130FF04D816F2800F0C280702800F0D5807328DE
S113100000F01B81752800F0DA8078285DD06AE74B
S113101030680390361D0A23012203A904A8FFF7B0
S113102003FF824604A81AEB00090398002804D59C
S11310302D2002901AF1010A11E03800800704D52E
S11310402B2002901AF1010A09E03800400704D568
S1131050202002901AF1010A01E0002002905FF0C2
S1131060000B3800000711D50298002804D02A008C
S113107000A90298FFF7C2FE5FF0010B2B0000AA43
S113108041465046FFF708FFC24612E03800C00749
S11310900FD42B0000AA41465046FFF70CFF0298DC
S11310A0002804D02A0000A90298FFF7A7FE5FF0E9
S11310B0010BBBF1000F07D10298002804D02A00CD
S11310C000A90298FFF79AFEA3E030680190361D4C
S11310D01023002201A904A8FFF7A6FE824604A853
S11310E01AEB00095FF0000B3800000716D5380032
S11310F0C0060BD52A0000A93020FFF77FFE2A0086
S113110000A97820FFF77AFE5FF0010B2B0000AAFC
S113111041465046FFF7C0FEC2461CE03800C007F7
S113112019D43800C00601D51AF1020A2B0000AA0E
S113113041465046FFF7BFFE3800C0060BD52A00D3
S113114000A93020FFF75AFE2A0000A97820FFF7F3
S113115055FE5FF0010B3800C0060ED5BBF1000F41
S11311600BD12A0000A93020FFF748FE2A0000A96D
S11311707820FFF743FE1AF1020A4AE03068019032
S1131180361D0823002201A904A8FFF74DFE82465C
S11311901FE030680190361D0223002201A904A833
S11311A0FFF742FE824614E030680190361D10239A
S11311B0002201A904A8FFF737FE824609E030683F
S11311C00190361D0A23002201A904A8FFF72CFE72
S11311D0824604A81AEB00093800000707D52B0043
S11311E000AA41465046FFF757FEC24611E03800B8
S11311F0C0070ED42B0000AA41465046FFF75BFE01
S113120007E02A0000A999F80000FFF7F7FDB9F1FB
S1131210010999F800000028F3D1F80705D52B003F
S113122000AA41465046FFF746FE61E63078361D77
S11312302A0000A9FFF7E2FD5AE6D6F80090361D11
S1131240B9F1000F21D0484600F0D5F982463800A4
S1131250C0070ED42B0000AA41465046FFF72BFED0
S113126007E02A0000A999F80000FFF7C7FD19F16B
S1131270010999F800000028F3D1F80705D52B00DF
S113128000AA41465046FFF716FE31E63068361D87
S1131290009901602CE600980DB0BDE8F08F0EB403
S11312A000B584B0012100910449019105AA01000F
S11312B000A8FFF70FFE04B05DF810FB391B000017
S11312C080B500F0A5F900F040FB00F0CEF9094824
S11312D0006850F00200074908600648006850F0B2
S11312E05000044908600348006850F08000014938
S11312F00860FEE70050044026490860704710B5B6
S113130004005C2C03DB0FF2A800FFF7C8FF2020C9
S113131094FBF0F0002803D0022827D013D337E041
S11313200120202194FBF1F202FB114290401A4962
S113133008600120202194FBF1F202FB114290404D
S11313401649086024E00120202194FBF1F202FBFD
S113135011429040124908600120202194FBF1F2CF
S113136002FB114290400F49086011E00120202146
S113137094FBF1F202FB114290400B4908600120FA
S1131380202194FBF1F202FB1142904007490860CE
S113139010BD000008ED00E080E200E000E100E0A4
S11313A084E200E004E100E088E200E008E100E01B
S11313B00A4552522120496E76616C696420495273
S11313C0512076616C756520706173736564207457
S11313D06F20656E61626C65206972712066756E3E
S11313E06374696F6E210A00DFF800F01104FF1FB7
S11313F080B50A00C0B2042801D3002072E0D2B242
S1131400102A01D301206DE0374A00231370374AB4
S1131410126852F08052354B1A60354A127852F0F5
S11314208002334B1A70334A98231370324A12786D
S1131430D206FBD4304A1278C2F38102D2B2022A15
S1131440F8D12E4A182313702D4A00231370C0B20A
S1131450002805D0022819D00DD3032821D02AE072
S11314600123002200210020FFF7BEFF2448412170
S1131470017032211FE00323012201210020FFF724
S1131480B3FF1F485A210170642114E00323012291
S113149001210020FFF7A8FF19485821017060219D
S11314A009E00123002200210020FFF79DFF1448DA
S11314B0402101703021104800788006FBD50E4889
S11314C000784006FBD50B48007810F03F00094A2D
S11314D0107009480078C0F38100C0B20328F8D125
S11314E00800C0B202BD0000014006403480044040
S11314F008C007400040064006400640044006403D
S11315000540064030B4324B984206D1314B1B683B
S113151053F480632F4C23602DE02F4B984206D167
S11315202C4B1B6853F400632A4C236023E02B4BA1
S1131530984206D1274B1B6853F48053254C2360F3
S113154019E0274B984206D1224B1B6853F40053F1
S1131550204C23600FE0234B984206D1224B1B689A
S113156053F48063204C236005E01F4B1B6853F445
S113157000631D4C2360C37813F0F303C37000238E
S113158083704FF47A7303FB01F3140193FBF4F3B8
S1131590047814F0E0049BB21D0A15F01F052C43D7
S11315A0047043704FF4FA446143120191FBF2F169
S11315B09BB2B1EB4311827A12F0E00411F01F01E7
S11315C021438172C17851F00C01C17030BC704765
S11315D000A006403480044000B0064000C006402D
S11315E000D0064000A00E40288004400279120674
S11315F0FCD5C17170470021002802D1002006E00B
S1131600491C0200501C1278002AF9D108007047C6
S113161080B5B548006850F02000B3490860B3486D
S113162000210160B24800210160B248002101603C
S1131630B14800210160B148006850F4A600AF49E8
S11316400860AF480068AF490843AD490860AE4838
S11316504FF468710160A948006850F08000A74900
S113166008605320FFF74BFE01BD80B5A348006816
S11316704FF480710843A1490860A048006800281D
S113168001D1012000E0002046F2A81000F058F932
S11316909E480068000C9E4908809D48008810F50B
S11316A070409C4908609A48008800F200209A49DA
S11316B00880974899490968090C418094484088F2
S11316C010F57040964908609148408800F2002067
S11316D0914948808E489349096881808C48808864
S11316E010F57040904908608948808800F2002015
S11316F08949888086488B490968090CC1808448D7
S1131700C08810F57040894908608148C08800F29B
S113171000208149C8807948006830F0800077490A
S1131720086001BD00207549096851F48041734A7D
S113173011607249096851F40041704A116073499B
S11317400968090C744A128889B28A4218D2784905
S1131750098851F00101764A118076490968491EC9
S1131760744A116073490968002913D150F00100CB
S11317706F4909884FF6FE7211406D4A118009E0E5
S11317806B4909884FF6FE721140694A1180694914
S113179010220A6061490968090C5F4A528889B2BB
S11317A08A4218D26249098851F00201604A1180C4
S11317B060494968491E5F4A51605E494968002989
S11317C013D150F002005A4909884FF6FD721140B6
S11317D0574A118009E0564909884FF6FD721140B5
S11317E0534A1180534910224A604E4909684A4AB3
S11317F0928889B28A4218D24D49098851F004016D
S11318004B4A11804B498968491E4A4A91604949AB
S11318108968002913D150F00400454909884FF61E
S1131820FB721140424A118009E0414909884FF690
S1131830FB7211403E4A11803E4910228A603949A8
S11318400968090C344AD28889B28A4218D23849C4
S1131850098851F00801364A11803649C968491E81
S1131860344AD1603349C968002913D150F00800C3
S11318702F4909884FF6F77211402D4A118009E06B
S11318802B4909884FF6F7721140294A11802949DA
S11318901022CA60C10706D527494FF400620A60C6
S11318A04FF6FE710840810706D523495FF00052C8
S11318B00A604FF6FD710840410706D51E495FF0E6
S11318C080520A604FF6FB710840010706D51A4999
S11318D04FF480620A604FF6F771084017485FF0D2
S11318E0FF310160704700003880044010900440CC
S11318F008A004400CA0044040A004400050044050
S11319000450044000001FF80850044008510440EB
S1131910C804FF1F34510440A804FF1F0C510440A5
S11319203C5104401051044040510440445104408F
S1131930E804FF1F5C04FF1F0CF00F400C50044030
S113194000E0401E0028FCD1704780B513480068B1
S11319504FF4007108431149086011484FF4807135
S1131960016010484FF4807101600F484FF480719A
S113197001600E484FF48071016000F003F800F03C
S113198005F801BD0A480B49016070470A48006820
S11319900A4908400849086070470000388004403C
S11319A02C900440749004407090044028900440AB
S11319B014F00F40000C003000F00F40FFF3FFCF95
S11319C070B4104C24680F4D2D6855F47F050D4EEE
S11319D03560090611F0706151EA0070110511F4C7
S11319E070010843190411F4702108430649086082
S11319F0002000E0401CC0B29842FBD301480460C0
S1131A0070BC704700F001404480044080B5044835
S1131A100178C9B20FF20C00FFF741FC01BD0000D0
S1131A2004ED00E00A2A2A2A2A64656661756C744A
S1131A305F69737220656E7465726564206F6E20D1
S1131A40766563746F722025642A2A2A2A2A0D0A6D
S1131A500A00000010000000000000000000000068
S1131A600000000000000000000000000000000072
S1131A700000000000000000000000000000000062
S1131A800000000000000000000000000000000052
S1131A900000000010B5084979441C31074C7C440F
S1131AA01A34A14206D0081D0A6851188847014615
S1131AB0A142F8D110BD00BF2C0000003800000086
S1131AC050F8041B61B150F8042BD30744BFA9F1AB
S1131AD001039A18002342F8043B091FFAD1EFE7E7
S1131AE070470000DDFFFFFF500000009C04FF1F53
S1131AF00000000000F009F8002801D0FFF7CAFF39
S1131B000020FFF7DDFB00F002F80120704780B5EC
S1131B1000F002B800BF00000746384600F002F8A3
S1131B20FBE7000080B5C046C046024A11001820F9
S1131B30ABBEFBE72600020080B50100C9B2024833
S1131B40FFF754FD01BD000000B00E40C046C04682
S10B1B50C046C046FFF7CEFFBA
S9031B4D94
